:020000040800F2
:1000000030720020DDC20008CBBB0008CFBB000867
:1000100000000000000000000000000000000000E0
:10002000000000000000000000000000A5B700086C
:10003000000000000000000067B70008D3BB000804
:1000400027380008773800080B410008DF4F000808
:10005000FF650008676600088B71000857BC000840
:100060003B7200081D0900084B720008D38100088C
:10007000E7910008E7BB000867A8000843A900084B
:1000800047A90008F7AA00081BAF00084FB90008ED
:10009000854E00088F4E00087FBD0008FFC0000895
:1000A0000BC1000861C4000863C400087B4E00084F
:1000B00003BC000865C4000867C40008F0B585B03B
:1000C0009627FF00049700240394744D039A049923
:1000D000280001F073FA02970194714D019A029978
:1000E000280001F06BFA402600946E4D009A310012
:1000F000280001F063FA6C4D3900280001F0A4FAE1
:1001000020006A49087000F0B8F800F0A8F800F084
:1001100050F832212800143001F026FB00F080FB5B
:100120000525634F22002900380001F047FA614895
:1001300001F002FC002801D002F0DFF805B0F0BDAC
:10014000F0B585B09627FF00049700240394534D23
:10015000039A0499280001F031FA02970194504D56
:10016000019A0299280001F029FA402600944D4D89
:10017000009A3100280001F021FA4B4D3900280087
:1001800001F062FA20004949087000F076F800F0AA
:1001900066F800F00EF832212800143001F0E4FA7D
:1001A0000525434F22002900380001F007FA05B069
:1001B000F0BD012040490200CA70002213000B73F9
:1001C00013004B7313008B771300CB771300CB73A3
:1001D00013000B7413004B7413008B741300CB7457
:1001E00013004B7513008B7513000B7013004B70CD
:1001F00013008B7013000B7113004B718A60130096
:100200008B732E4913000B7013004B7013008B700F
:100210001300CB7013000B7113004B7113008B7123
:100220001300CB7113000B7213004B7213008B720F
:100230001300CB7213000B7313004B7313008B73FB
:100240001300CB7313000B7413004B7413008B74E7
:100250001300CB7413000B7548758A757047002026
:1002600017490200CA7148630864486505228A6517
:10027000C86548668866C866704710B50A4C012292
:100280001049114802F0A3F8402160544020205C3E
:10029000002802D101200949087110BD602F0020FB
:1002A000F041002080660020FC650020226A0020CA
:1002B00084690020206500207C670020B46700204E
:1002C000A46200201463002010620020F1B584B005
:1002D0000025280069460870AF4C6078002800D0DF
:1002E00097E272B6AD4E3000143001F0A4FAF0631C
:1002F00062B6F06B002800D113E2F06B007C01289D
:1003000000D00EE2F06B0078002800D109E202284C
:1003100000D130E1032800D16AE1042833D0052858
:100320002BD0062800D15BE10A2800D17DE10C2802
:1003300000D18FE00D2800D1B6E10E2851D014284D
:1003400000D192E1152800D1AAE1162800D150E190
:100350001B281ED01C282BD01D283ED01E285CD068
:100360001F2800D1D7E1202800D1A3E0212800D107
:10037000BFE0222800D1DDE0D3E101208849C87325
:100380002800A075CDE101208549C8733720A075EC
:10039000C7E101208249C87382A1834803F0F6F9BE
:1003A000002802D03020A07501E03120A075B8E10E
:1003B00001207B49C8737C4E7AA1300003F0E6F936
:1003C000002804D1300003F0FDF9002802D10220FA
:1003D000A07501E03220A075A3E101207049C87327
:1003E0009FE1724E7249300003F0F4F9300003F0DF
:1003F000E9F980B201F0ACF8694608706846007807
:10040000002805D001206649C8730F20A07503E0BD
:100410006848C5660120E07483E1664E634FB268A8
:100420006549380003F0D6F9380003F0CBF980B203
:1004300001F08EF86946087068460078002805D0FB
:1004400001205749C8730F20A07502E0F56601200E
:10045000E07466E101F06CF8564E5421706903F0C7
:10046000D9F9002805D07269CF49504803F0B2F994
:100470000AE05521706903F0CDF9002804D0326EEE
:10048000CA494A4803F0A6F9484803F09BF980B2EC
:1004900001F05EF86946087068460078002805D0CB
:1004A00001203F49C8730F20A07502E0F5660120C6
:1004B000E07436E13D4ED849300003F08BF930004E
:1004C00003F080F980B201F043F86946087068468D
:1004D0000078002805D001203149C8730F20A0758D
:1004E00006E03448C56601200100E1742C49087615
:1004F00017E1304E2D4F736A326AD049380003F04D
:1005000069F9380003F05EF980B201F021F869461C
:10051000087068460078002805D001202049C8737B
:100520000F20A07505E0F56601200100E1741C496B
:100530008876F6E01F4E1D4F736A326AB74938005D
:1005400003F048F9380003F03DF980B201F000F8FB
:100550006946087068460078002805D001201049D7
:10056000C8730F20A07505E0F56601200100E17455
:100570000B490877D5E00F48C179491CC1712900A2
:10058000E174C566C179042918DB01200449C873E8
:100590000420A075C5E000BFB4670020FC65002002
:1005A0007C6700202222000080660020183B00208B
:1005B00028C20008A46200209CC20008F16B89894F
:1005C0000170F06B8089411CF26B918101210A005E
:1005D000B64B80B21A54B648C1732800A075A0E08B
:1005E000B3480121C1733321A1752900017598E039
:1005F000FEE700F09DFFAF4EAF49300003F0EAF890
:10060000300003F0DFF880B200F0A2FF6946087006
:1006100068460078002804D00120A549C8730F203F
:10062000A0750120A24908707BE000F081FFBA4864
:10063000838D8268A1499F4803F0CCF8A04F012622
:10064000300038709B4803F0BDF880B200F080FFA6
:100650006946087068460078002805D09448C6733B
:100660000F20A075280038705BE000F061FFAA4FF2
:10067000B88D0390B86A02908E4E0196039A029943
:10068000019803F0EBF801980D20B98D7054B88DE6
:1006900000F05EFF6946087001208549887540E0DA
:1006A00001208349C8743CE08048F16B0989405CB3
:1006B00000282FD0F06B8089401EF16B888100F0FC
:1006C00037FF7C4FB28E9849380003F083F838002A
:1006D00003F078F880B200F03BFF69460870684686
:1006E0000078002817D12800A075611C01200200A5
:1006F0000A70F26B1289884B5A716D4A030093732A
:10070000507028000870280060722800A07228002D
:10071000207200E005E001206549C8733620A0750D
:10072000FFE7E07901280FD195480178002904D02E
:100730000421794A5163290001707748406B80B2E7
:1007400003F002FBE57164E0E07A012807D1584824
:10075000C078012803D103F03BFBE57259E0A07B90
:10076000012825D1874F6C4EF36CF26C3900B078BC
:1007700003F04DFC8449012008703878D03048706F
:10078000B8788870002300228048006803F01BFEC0
:10079000012208217E4804F050F8B564F56400F0A9
:1007A0004FF8A57335E000BF04C0000828C000085A
:1007B000E07B012818D1734F574EF36CF26C39006F
:1007C000092003F024FC9620C00002900195019AB4
:1007D0000299380000F0F2FEB564F56400F030F8DC
:1007E0002800E073657014E0607C01280AD14A4853
:1007F0002E498279895C002902D0807900F06AFE56
:10080000657406E0207C012803D1624803F00BFCEC
:10081000257405B0F0BD00BF20BF00084CC0000823
:100820002348002181600121817070472048002108
:10083000816081700121817770470000B8C1000894
:1008400001201B49C870704738B5194CA0780028A2
:1008500004D0E078012801D100F081F84E4DA87C49
:10086000012808D14D4800F003FF002803D00020E4
:10087000A874FFF702FDE87C002812D0264801008A
:100880006C31C26E521C0A60C06E454A904208D359
:10089000002008600100E9740F21A9750121E173AE
:1008A000687031BD01213F4AD177704784690020CB
:1008B0007C670020183B0020ACC2000870C0000814
:1008C00091670020F1B5344D374F00203870FFF7A5
:1008D000ADFF72B6354E314C3100200000F0E4FE21
:1008E00062B6FFF79DFF200000F0B6FE002802D0A0
:1008F0000120A8740FE0E87800280CD10122310013
:100900002B4801F064FD402160544020205C002809
:1009100001D101203870F1BDA462002080B52448C7
:10092000C06F04F0FDF801BDD0C1000800B50100A2
:10093000204801600268002A05D01A4AD27B012AA9
:1009400001D000BFF6E71748C27B002A02D101227E
:10095000114B9A750022C2730F48807D00BD10B5FF
:1009600072B6A54C0D4800F0BEFEE06162B6E069CB
:10097000002802D0E06900F01FF810BD0000000060
:10098000236A0020602F0020A06900205469002005
:1009900000040050A8620020B4670020FC6500201D
:1009A000C1D401007C670020B867002014630020D8
:1009B000106200208C690020F1B586B00025290066
:1009C000069800786A4610728C48C84E6A46127AB9
:1009D0000368F2540268521C026000683018801EDE
:1009E00000780D2800D0DAE3844800683018401EF3
:1009F00000780A2800D0D2E3BD4C2078002800D02F
:100A0000CDE37E4800683018001F00784F2800D0E2
:100A10004FE27A4800683018C01E00784B2800D09A
:100A200047E2764800683018801E00780D2800D014
:100A30003FE2724800683018401E00780A2800D053
:100A400037E26F49300002F0A1FE6E4F3860002897
:100A50002FD06D483968097A01700078312809D1A2
:100A60000120A44902003723CA5404222823CA546F
:100A70003822885472B69F4C2100283183B06846D2
:100A8000142202F0D1FE0EBC2000143000F08EFEC5
:100A900062B62000283000F011FF58480560962407
:100AA000E40000953700009A2100380000F086FD30
:100AB00075E35649300002F069FE3860002846D0E0
:100AC00038685349086050483968C97B01703968F3
:100AD000097C417001780D2903D1FF204649C87077
:100AE00009E041780D2906D13968C97B0170007889
:100AF000D0304149C87001207E4F01003722B954DF
:100B000002212822B954010021753821785472B687
:100B10003900283183B06846142202F085FE0EBCED
:100B20003800143000F042FE62B63800283000F081
:100B3000C5FE28006070314805609624E4000095E9
:100B40003700009A2100380000F038FD27E33149D2
:100B5000300002F01BFE386000282DD027480560C9
:100B60009620C000049003953700039A049938003A
:100B700000F024FD72B65F4F3900283183B068461B
:100B8000142202F051FE0EBC3800143000F00EFEAC
:100B900062B63800283000F091FE280060701748D7
:100BA00005609620C00000902C00370022000099BC
:100BB000380000F003FDF2E2D949300002F0E6FD12
:100BC000386000285DD03868801D3860D54829001D
:100BD00001700178142922DA396809780D291BD0AF
:100BE00039680978D04A0378D1543968491C39608A
:100BF0000178491C0170ECE7A4620020A469002080
:100C0000E4C30008AC69002008690020BCC20008E9
:100C1000A869002094C30008C34900780D5401203E
:100C20003349C8750025C14805609627FF00049721
:100C300003952E4E3400039A0499200000F0BEFC68
:100C400072B62C4C2100283183B06846142202F081
:100C5000EBFD0EBC2000143000F0A8FD62B62000B1
:100C6000283000F02BFE280021494870AF4805606D
:100C700000972C00370022000099380000F09EFCFD
:100C80008DE2607D012829D1280060750120194C72
:100C900001003722A1542700283714213970382148
:100CA000605472B62100283183B06846142202F0E5
:100CB000BBFD0EBC2000143000F078FD62B6380099
:100CC00000F0FCFD994805609624E400009537008B
:100CD000009A2100380000F071FC60E2A07D01283C
:100CE00030D12800A0750120024C05E0A04600206C
:100CF0007C670020FC65002001003722A1542700FA
:100D00002837152139703821605472B621002831F6
:100D100083B06846142202F087FD0EBC2000143018
:100D200000F044FD62B6380000F0C8FD7F48056061
:100D30009624E40000953700009A2100380000F066
:100D40003DFC2CE2207E01282BD1280020760120BA
:100D500001006176DB4C01003722A15427002837BF
:100D6000052139703821605472B62100283183B0D2
:100D70006846142202F058FD0EBC2000143000F02A
:100D800015FD62B6380000F099FD684805609624AC
:100D9000E40000953700009A2100380000F00EFCB6
:100DA000FDE1A07E01282BD12800A07601200100C2
:100DB000E176C44C01003722A154270028370521D1
:100DC00039703821605472B62100283183B06846EA
:100DD000142202F029FD0EBC2000143000F0E6FCC5
:100DE00062B6380000F06AFD504805609624E400C1
:100DF00000953700009A2100380000F0DFFBCEE1BB
:100E0000207F01282BD12800207701200100617765
:100E1000AC4C01003722A154270028370521397036
:100E20003821605472B62100283183B068461422FC
:100E300002F0FAFC0EBC2000143000F0B7FC62B6E1
:100E4000380000F03BFD394805609624E400009529
:100E50003700009A2100380000F0B0FB9FE101202C
:100E6000984F01003722B95405212822B95438215E
:100E7000785472B63900283183B06846142202F0E3
:100E8000D3FC0EBC3800143000F090FC62B6380081
:100E9000283000F013FD2800607024480560962477
:100EA000E40000953700009A2100380000F086FB2E
:100EB00075E1B649300002F069FCB54F3860002892
:100EC00036D000220821DE4803F0B7FC01207D4F18
:100ED00001003722B95416212822B95438217854F8
:100EE00072B63900283183B06846142202F09CFCA7
:100EF0000EBC3800143000F059FC62B638002830BF
:100F000000F0DCFC28006070084805609624E400CE
:100F100000953700009A2100380000F04FFB3EE1B9
:100F2000ECC30008266A00201C000020A4690020F1
:100F3000C449300002F02AFC3860002829D0012082
:100F4000604F01003722B95405212822B9543821B5
:100F5000785472B63900283183B06846142202F002
:100F600063FC0EBC3800143000F020FC62B6380080
:100F7000283000F0A3FC28006070D4480560962457
:100F8000E40000953700009A2100380000F016FBBD
:100F900005E1CF49300002F0F9FB3860002847D066
:100FA000CC49300002F0F2FB3860002802D0352036
:100FB000C9498875C949300002F0E8FB386000284B
:100FC00002D03420C4498875C549300002F0DEFBE8
:100FD0003860002802D03420BF4988750120394F7D
:100FE00001003722B95405212822B95438217854F8
:100FF00072B63900283183B06846142202F014FC1E
:101000000EBC3800143000F0D1FB62B63800283036
:1010100000F054FC28006070AC4805609624E400A1
:1010200000953700009A2100380000F0C7FAB6E0BA
:10103000AC49300002F0AAFB3860002829D001201A
:10104000204F01003722B95405212822B9543821F4
:10105000785472B63900283183B06846142202F001
:10106000E3FB0EBC3800143000F0A0FB62B6380081
:10107000283000F023FC2800607094480560962416
:10108000E40000953700009A2100380000F096FA3D
:1010900085E0CD49300002F079FB3860002800D0AF
:1010A0007DE0CA49300002F071FB3860002876D13B
:1010B000C749300002F06AFB386000286FD1C5498B
:1010C00002E000BFFC650020300002F05FFB3860EA
:1010D000002829D00120D14F01003722B954052121
:1010E0002822B9543821785472B63900283183B097
:1010F0006846142202F098FB0EBC3800143000F051
:1011000055FB62B63800283000F0D8FB280060702C
:101110006E4805609624E40000953700009A21008F
:10112000380000F04BFA3AE0AB49300002F02EFBF9
:10113000386000282ED00120B84F01003722B95462
:1011400005212822B9543821785472B63900283143
:1011500083B06846142202F067FB0EBC38001430DE
:1011600000F024FB62B63800283000F0A7FB28000E
:101170006070564805609624E40000953700009A98
:101180002100380000F01AFA09E000BFA0C30008EF
:10119000AC690020B549300002F0F8FA3860B44874
:1011A0000078012800D00CE1484800683018001F82
:1011B00000784F2800D004E1444800683018C01E71
:1011C00000784B2800D0FCE0404800683018801EB2
:1011D00000780D2800D0F4E03C4800683018401E2C
:1011E00000780A2800D0ECE0A349300002F0CEFAE3
:1011F000A04C2060002800D1C2E08848012137229D
:1012000081540121382281549C49206808609C48FF
:101210002268527B02709B4A23689B7B13709A4B17
:101220002768FF7B1F7027683F7CC77047780D2FAA
:101230000AD12268527B02700A68D21D0A601FE040
:1012400000040050F4C3000887780D2F09D12368EB
:101250005B7B037023689B7B13700A6808320A600B
:101260000EE0C7780D2F0BD127687F7B07702768AA
:10127000BF7B17702268D27B1A700A6809320A6035
:1012800041780D2904D1007830388F4908643DE059
:1012900081780D2909D101780A2251434078081834
:1012A0008A4940188849086430E0C1780D291BD16B
:1012B00001786422514342780A235A43891880787E
:1012C000081883494018804908641FE0A469002079
:1012D000ACC30008FCC30008B467002004C40008C5
:1012E0000CC4000814C400080178FA22920051438B
:1012F000427864235A43891882780A235A4389180A
:10130000C0780818894940186F490864434F6E48EF
:10131000006CF8626C4805648B480068F96A083113
:1013200088422DD3F86A8021C900884202D2012068
:10133000844988735049300002F028FA2060206800
:1013400010302060F86A604988645F48806C0190C2
:10135000206800907D485C49C96C4418019A009946
:10136000200002F07BFA012001003722B954382115
:1013700078545548C06C5449896C40185249C86427
:1013800072B6264C2100283183B06846142202F040
:101390004BFA0EBC2000143000F008FA62B62000B0
:1013A000283000F08BFA324F2800787066480560CC
:1013B0009624E4000095009A2100300000F0FEF829
:1013C0003D7007B0F0BD00001CC40008B8C30008A1
:1013D000C4C30008CCC2000824C40008F7B5060046
:1013E0000D003948858502998162C6700B4C270033
:1013F00028370A20387072B62100283183B0684639
:10140000142202F011FA0EBC2000143000F0CEF9C4
:1014100062B6380000F052FAF7BD0000FC6500200B
:10142000FEB582B006000D0000F072F82648866016
:101430000566039941616946097CC170594C2700D2
:1014400028370C20387072B62100283183B06846E6
:10145000142202F0E9F90EBC2000143000F0A6F9C5
:1014600062B6380000F02AFA05B0F0BD2CC40008BE
:101470007C670020AC690020D0C30008A869002068
:1014800008690020096900200A6900207CB5050070
:1014900000F03EF80C48C570424C260028360E205D
:1014A000307072B62100283183B06846142202F0F1
:1014B000BBF90EBC2000143000F078F962B63000A1
:1014C00000F0FCF973BD0000A4620020F0FDFFFFF6
:1014D00030EBFFFF7CB5050000F01AF8314C260018
:1014E00028360D2030702800C0B2A08672B62100C8
:1014F000283183B06846142202F096F90EBC200011
:10150000143000F053F962B6300000F0D7F973BD23
:1015100000B525480178012905D04178012904D179
:10152000807B012801D000BFF3E700BDB02FFFFF93
:1015300070B51E4C00251E4E2A002100300000F020
:101540003DF870BDB4670020A4690020602F002022
:1015500070B506000024250013480079002802D148
:101560000520050013E001201249C870300080B248
:10157000002802D12120050009E0320092B20C4976
:101580000D4800F062FF002801D011200500094835
:10159000C4700079002801D1FEF76FFE2800C0B2A8
:1015A00070BD0000FC6500207C670020D6060000AE
:1015B000183B0020B4670020106200201206130AB6
:1015C0001A43130C1A4300BF094205D0830705D004
:1015D0000270401C491EF9D17047000013001039F9
:1015E00006D330B41400150010393CC0FCD230BC16
:1015F000490700D30CC000D504C0890002D3028083
:10160000801C002900D50270704730B50168411870
:10161000446862088A188368E40704D54C461B199D
:1016200001E0641C09D1914203D00C7864B2491CDA
:1016300001E00C3030BD0D78491C1D705B1C002C86
:10164000EFD4641EF7D5EEE7816000220260C2602D
:101650004260414A0261704700B501008A68CB6868
:1016600010006438834201DB012000E0002000BD4F
:1016700000B50100C868652801DA012000E00020FB
:1016800000BD00B501008A68C868904201D1012000
:1016900000E0002000BD00B50100C868002801D1AD
:1016A000012000E0002000BDF8B504000D0020007E
:1016B000FFF7E7FF002815D1E068401CE060606894
:1016C0000126009521690F1832000099380002F0B8
:1016D000C5F86068401C6060A0686168814201DBF9
:1016E00000216160F1BDF8B584B004001B4D019587
:1016F0002000FFF7D0FF002801D0002028E0962727
:10170000FF0000260296029A39002800FFF756FFD4
:101710001348007A00281AD1206801250395216911
:1017200008180290019F039A0299380002F096F877
:101730002068401C2060E068401EE0600948456564
:10174000A068009020680099884200DB266001981C
:1017500005B0F0BD00000000504B0020F04100201B
:10176000B4670020A4620020142213004B4383605E
:1017700000230360C36043604E4B0361704770B544
:101780000400A568E6682800142103F0BAFA86422E
:1017900001D1012000E0002070BD00B50100C86843
:1017A000002801D1012000E0002000BD0EB418B5D2
:1017B00004002000FFF7E3FF002837D16068142100
:1017C00003F09FFA2169142242438918049A4A605F
:1017D000216914224243891803AA927B8A732169E2
:1017E00014224243891803AAD27BCA7321691422A6
:1017F0004243891803AA12890A816946097B226932
:1018000014234343D154216914224243891803AA63
:10181000127C0A74E168491CE160616814316160FE
:10182000A16862688A4201DB0022626001B001980F
:1018300010BC04B0004710B504002000FFF7ADFF56
:10184000002801D0002034E02068142103F059FA68
:1018500002001948216914235343C918496841609B
:10186000216914235343C918897B81732169142387
:101870005343C918C97BC173216914235343C91841
:1018800009890181216914235343C95C01702169CD
:1018900014235343C918097C017421681431216051
:1018A000E168491EE160A16823688B4201DB0023E7
:1018B000236010BD605800200868002000214160AE
:1018C0000A0082730A000270C1730521018101219F
:1018D0000174704710B50400002C01D101202AE0EA
:1018E0003D20205C002805D100203C2160542000D0
:1018F00003F0E6FA02203D216054211D206800F02B
:10190000ABF90120482160543E2160543F216054CE
:10191000402160544121605442216054432160546D
:10192000442160544521605446216054472160544D
:101930003D216054002010BD10B501003D20085C21
:10194000012801D0012030E002203D23C8540120AD
:101950000B68DB6803430C68E3600B68134CA3421D
:101960000CD00B688024E405A34207D00B68104C10
:10197000A34203D00B680F4CA34210D10B689B68A5
:101980000D4C1C402200062A0ED080235B029A4296
:101990000AD00B681B6818430B68186004E00B68DA
:1019A0001B6818430B681860002010BD002C014014
:1019B000000400400040014007000100F8B50400A9
:1019C0002068C06800902068076902252F421BD05C
:1019D00000982840002817D00220C04321680861E1
:1019E00001202077206880698007800F002803D0BD
:1019F000200003F0EDFA05E0200003F0EAFA2000F1
:101A000003F0E8FA00202077042637421BD0009824
:101A10003040002817D00420C04321680861257792
:101A200020688069C02189000140002903D020007E
:101A300003F0CEFA05E0200003F0CBFA200003F01B
:101A4000C9FA0020207708252F421AD00098284094
:101A5000002816D00820C043216808612677206836
:101A6000C0698007800F002803D0200003F0B0FA7F
:101A700005E0200003F0ADFA200003F0ABFA0020EF
:101A80002077102007421BD000990840002817D06B
:101A90001020C0432168086125772068C069C021F3
:101AA00089000140002903D0200003F091FA05E0ED
:101AB000200003F08EFA200003F08CFA002020773B
:101AC000012007420AD000990840002806D00120D2
:101AD000C04321680861200003F0DEF98220800104
:101AE0003840002808D00098000605D5164821681F
:101AF0000861200003F06FFAF80508D50098000689
:101B000005D5124821680861200003F065FA4020DD
:101B100007420AD000990840002806D04020C04360
:101B200021680861200003F058FA202007420AD0FB
:101B300000990840002806D02020C0432168086191
:101B4000200003F04BFAF1BD7FDFFFFFFFFEFFFF38
:101B5000FEB504000D000027684607703C20205C9D
:101B6000012801D1022072E001263C2026540220E7
:101B70003D2160542068806835490140354808405F
:101B800001900198216888602868002852D01028A8
:101B900050D020284ED030284CD0402840D050285B
:101BA0002AD0602832D0702809D08021490188428B
:101BB00004D080218901884210D040E041E0EB68E8
:101BC0006A68A968206800F0D0F8206880687721EA
:101BD0000143019101982168886032E0EB686A68EE
:101BE000A968206800F0C1F8206880688021C901D8
:101BF00001432068816024E0EA686968206800F099
:101C000085F85021206800F0A7F81AE0EA686968B2
:101C1000206800F08DF86021206800F09DF810E049
:101C2000EA686968206800F071F84021206800F0D7
:101C300093F806E02968206800F08EF801E0684615
:101C400006703D2026543C20275468460078FEBD8F
:101C500088FFCEFFFF00FFFF10B50268244CA042B2
:101C600006D08023DB05984202D0224B984204D153
:101C700070239A4313004A681A43A04212D080236B
:101C8000DB0598420ED01B4B98420BD01A4B984262
:101C900008D01A4B984205D0194B984202D01A4BE3
:101CA000984203D1174B1340CA681A4380239A43C2
:101CB0004B69134303608A68C2620A688262A04269
:101CC00008D00E4A904205D00D4A904202D00E4AEA
:101CD000904201D10A6902630122426104692240F3
:101CE000002A03D002690124A243026110BD000052
:101CF000002C014000040040002000400040014052
:101D000000440140FFFCFFFF0048014030B4056A79
:101D1000036A0124A34303628369F024A3431401EB
:101D20001C430A239D430D438461056230BC704708
:101D300030B4056A036A1024A34303628369124C1A
:101D40001C4013032343A024A5430C012C438361AF
:101D5000046230BC7047000082680A4B13400B439A
:101D600007221A4382607047000030B48468074D30
:101D700025400D4315431C022C43846030BC704742
:101D8000000000008FFFCFFFFF0FFFFFFF00FFFFEE
:101D900030B403680C004C4303256C43A3430C0090
:101DA0004C4354431C43046030BC704730B4C36898
:101DB0000C004C4303256C43A3430C004C43544399
:101DC0001C43C46030BC70478162704770B403220A
:101DD000B64B14000C4004256C431C5907250E001B
:101DE000360CB540AC430D002D0C0600AE4026432A
:101DF0000A40042462439E5070BC704781B0AC49D5
:101E00000A6802430A60096801400091009901B024
:101E1000704710B503F0E4F800F078F800F0B0F97E
:101E200000F00EF900F04EF900F0ADF800F0D2F835
:101E3000BF48FFF781FD002801D000F05EFA9D4CFD
:101E400000222021200002F0F8FC002210212000B6
:101E500002F0F3FC00220821200002F0EEFCFA2040
:101E6000800003F0DFF801222021200002F0E5FCD1
:101E700001221021200002F0E0FC012208212000B4
:101E800002F0DBFC02F08FF98B4A1421012002F0F2
:101E900040FA8A4908608A4A1421012002F039FA7E
:101EA000A4490860A44A0321012002F032FAA349A0
:101EB0000860A34A0121012002F02BFAA149086021
:101EC000A14A0121012002F024FAA0490860A04A99
:101ED0000021A04802F098F99F4908609F4A00211C
:101EE0009F4802F091F99F4908609F4A00219F484E
:101EF00002F08AF99E4908609E4A00219E4802F03D
:101F000083F99E49086002F061F9FEE738B592B0A6
:101F10003821002204A8FFF751FB10210022684657
:101F2000FFF74CFB8020800003F092F80224049419
:101F300080204000079000250895402009900B94D0
:101F40000C940D9508200E90802080020F90C020E8
:101F5000C004109080208005119004A803F0ACF814
:101F6000002801D000F0C9F90720009001940295E3
:101F700003950221684603F009FB002801D000F018
:101F8000BCF913B030BD10B5C34CC4482060C44880
:101F900060600020A0600121E16020616061A061BB
:101FA000E0612062200003F043FC002801D000F033
:101FB000A4F90021200004F05BF8002801D000F013
:101FC0009CF90021200004F086F8002801D000F0E0
:101FD00094F910BD30B587B01021002203A8FFF797
:101FE000EDFA0C2100226846FFF7E8FA504CAD48A4
:101FF000206000256560A560AB48E06025616561F3
:10200000A5612000FFF766FC002801D000F075F9FB
:1020100080204001039003A92000FFF799FD0028CC
:1020200001D000F06AF900950195029569462000FB
:1020300004F086F8002801D000F05FF907B030BD49
:1020400010B59A4C9A482060E12040026060002060
:10205000A060E06020610C216161A061E06120620C
:1020600060620820A06280200002A063200000F0CF
:1020700047F9002801D000F040F90021200004F0C9
:10208000C8F8002801D000F038F90021200004F041
:10209000EBF8002801D000F030F9200004F096F8A9
:1020A000002801D000F029F910BD0000601802409E
:1020B000341002400004005028C100084C69002080
:1020C00040C1000810B57B4C7B482060E1204002F5
:1020D00060600020A060E06020610C216161A0616F
:1020E000E061206260620820A06280200002A0639C
:1020F000200000F005F9002801D000F0FEF80021D2
:10210000200004F086F8002801D000F0F6F8002145
:10211000200004F0A9F8002801D000F0EEF820001B
:1021200004F054F8002801D000F0E7F810BD0000DA
:10213000D46400205069002058C100085469002070
:1021400070C100085869002088C100085C6900203F
:1021500074BF0008C52200083C69002098BF000831
:10216000D122000840690020BCBF0008DF2200081F
:1021700044690020E0BF0008ED2200084869002003
:10218000F0B589B00C21002206A8FFF717FA182134
:1021900000226846FFF712FA0120FFF72FFE022007
:1021A000FFF72CFE80210902A020C005FFF70CFEDE
:1021B00008214248FFF708FE10214048FFF704FEBF
:1021C00020213E48FFF700FE0124009402260196DC
:1021D0000025029503950495042705976946A020DC
:1021E000C00504F00CF9009601960295039504953C
:1021F00005976946A020C00504F001F91026009655
:10220000019504956946A020C00504F0F8F88020E7
:102210000002009001940295039504956946A02060
:10222000C00504F0ECF80820009001940295039595
:1022300004956946214804F0E2F80096019402955D
:102240000395049569461D4804F0D9F820200090B4
:1022500001940295039504956946184804F0CFF857
:1022600017490020FFF7B2FD8020069006A8210044
:1022700001724572847206A804F046F9002280219A
:10228000A020C005FFF792FD00228021A020C005FC
:10229000FFF77EFD09B0F0BD30640020005800401B
:1022A00073216000002C0140FFF90000E86000206D
:1022B000003801407C6100200044004000040050D0
:1022C0000100180010B50400012002F011F8FBE72E
:1022D00010B5040004F094F904F0CAF910BD10B56B
:1022E000040004F020FB04F023FBFCE710B504001D
:1022F00004F0D0FC04F006FEFCE700B572B6FEE781
:1023000010B50400002C01D1012037E0A06900289D
:10231000FFD188202058002805D100208421605456
:10232000200004F080FE242088216050206800688E
:102330000121884321680860A06A002802D020009B
:1023400000F05AFC200000F0ABFA012801D1012076
:1023500014E0206840680A49014020684160206814
:1023600080682A21884321688860206800680121EC
:10237000014320680160200000F0B2FC10BD0000A5
:10238000FFB7FFFF38B50400002C01D101201DE08C
:10239000242088216050206800680121884321683A
:1023A0000860002520680560206845602068856019
:1023B000200004F0AFFE90202550882025508C206E
:1023C0002550E566256784202554002032BD70B570
:1023D00004000D0016008C202058202833D1002D39
:1023E00003D0300080B2002801D101202CE0A06889
:1023F00080214901884207D12069002804D12800A2
:10240000C00701D501201FE00020E06620683D499B
:10241000884211D02068406800020DD5EFF310808B
:10242000012181F31088216809688022D2040A43BF
:1024300021680A6080F31088320092B229002000DF
:1024400000F014FD00E0022070BD70B504000E0025
:10245000150088202058202852D1002E03D02800B3
:1024600080B2002801D101204BE0A0688021490101
:10247000884207D12069002804D13000C00701D567
:1024800001203EE02665542025525620255200208A
:102490009021605021218822A150E16F00291DD098
:1024A0001949E26FD1621949E26F11631849E26F6D
:1024B0005163E16F88632B009BB2206802002832D1
:1024C000216DE06F02F03CFA002807D01020902127
:1024D0006050202088216050012012E040202168B7
:1024E0000862EFF31080012181F310882168896868
:1024F00080220A4321688A6080F31088002000E06F
:10250000022070BD0080004079300008CB30000808
:10251000F5300008FEB504002068C769206805682A
:102520002068806800909A483840029002980028FD
:102530000FD1202007420CD02840002802D100985B
:10254000C00006D5606F002802D02000616F884768
:102550009DE10298002800D1A9E08E480099014031
:10256000002904D18C492940002900D19FE039007D
:10257000C90709D5E90507D5012122681162902212
:10258000A25811439022A15002210F420AD0009A72
:10259000D20707D5226811629022A2580423134360
:1025A0009022A3500422174209D0009BDB0706D5D6
:1025B00023681A629022A25811439022A150082148
:1025C0000F420CD0AA0603D4009A1040002806D06F
:1025D00020680162902020580143902021508020E3
:1025E0000001074209D0690107D5216808629020DF
:1025F000205820210143902021509020205800286D
:1026000054D0202007420BD02840002802D1009847
:10261000C00005D5606F002802D02000616F884798
:102620009020205801904026206880683040002883
:1026300004D1019828210140002931D0200000F068
:10264000E7FC206880680640002E25D0EFF310805C
:10265000012181F310882168896840229143226812
:10266000916080F3108880202058002810D088487E
:102670008021615888638020205802F003FA0028E6
:1026800014D08020205880216158896B88470DE044
:10269000200004F075FD09E0200004F071FD05E064
:1026A000200004F06DFD002090216050EFE0E06E0E
:1026B000012800D0B4E01020074200D1B0E005426C
:1026C00000D1ADE02168086220688068400665D5C9
:1026D0008020205800684668300080B2002856D01C
:1026E00030005C21615A80B2884250D25E2026526E
:1026F00020208021615809680968014000293BD1E8
:10270000EFF31081012282F3108822681268614B76
:1027100013402268136081F31088EFF310810122C7
:1027200082F310882268926801239A4323689A6092
:1027300081F31088EFF31081012282F31088226860
:10274000926840239A4323689A6081F310888C2111
:1027500060500020E066EFF31080012181F31088C3
:1027600021680968102291432268116080F3108863
:102770008020205802F040F9022020675C20205A77
:102780005E21615A411A89B2200004F0FAFC7EE011
:102790000F08000001000010200100045C20205AF6
:1027A0005E21615A461A5E20205A002837D0300038
:1027B00080B2002833D0EFF31080012181F310881C
:1027C00021680968344A0A4021680A6080F3108849
:1027D000EFF31080012181F31088216889682F4A66
:1027E0000A4021688A6080F3108820208C21605084
:1027F0000020E0666067EFF31080012181F310880C
:1028000021680968102291432268116080F31088C2
:1028100002202067310089B2200004F0B2FC36E0CB
:1028200080204003074208D00099490205D521685D
:102830000862200004F0A6FC29E0802007420CD0AA
:102840002840002802D10098000206D5A06F002879
:1028500002D02000A16F884719E04020074206D02F
:102860002840002803D0200000F079FC0FE0380257
:1028700005D5680003D5200004F085FC07E0F801C9
:1028800005D5002D03D5200004F07EFCFFE7F7BD41
:1028900047310008FFFEFFFFDFFEFFFFFEFFFFEFF7
:1028A000F8B584B006000027380069460870AE48C5
:1028B00031688142FFD0B2683169114372690A43BD
:1028C000F169114332681268A84B13400B43326818
:1028D000136032685268A64B1340F2681A4333689B
:1028E0005A60B26903923268824203D00399326A15
:1028F0000A430392316889689E4A0A40039911434A
:10290000326891603168C96A0F229143726A0A4342
:102910003168CA623168B34A914215D1B249096837
:102920008907890F002905D0022905D006D303297C
:1029300006D007E03C0050E002244EE004244CE0C6
:1029400008244AE0102448E03168A84A914216D190
:10295000A54909680C220A40002A06D0042A08D09A
:10296000082A04D00C2A06D007E03C0035E00224F7
:1029700033E0042431E008242FE010242DE03168F6
:102980009B4A914201D13C0027E03168994A91422B
:1029900001D13C0021E0316881421DD19249096892
:1029A000C02212010A40002A0CD08021C9008A42AC
:1029B0000CD0802109018A4206D0C02109018A4237
:1029C00006D007E03C0008E0022406E0042404E00E
:1029D000082402E0102400E010243168814264D110
:1029E0002000C0B2002806D0022808D0042808D051
:1029F00008280AD00CE002F0EFFE05000CE0B64D0E
:102A00000AE002F089FE050006E080252D0203E0C1
:102A10003D00012069460870002D00D1D6E0280055
:102A2000AE49726A02235A43895A02F06AF9029047
:102A30000298716803225143884206D3706880214E
:102A4000490148430299884203D20120694608702F
:102A5000BCE02800A149726A02235A43895A02F055
:102A600050F9002180225200002304F08FFB020065
:102A70000B007068400800218018594172680023DB
:102A800004F09DFB01900198C0218900884208D381
:102A9000019880214903884203D201983168C860B7
:102AA00094E001206946087090E080252D02F069CD
:102AB000A84247D12000C0B2002806D0022808D082
:102AC000042808D008280AD00AE002F085FE050094
:102AD0000AE0814D08E002F01FFE050004E003E07B
:102AE0003D00012069460870002D6FD028007B4909
:102AF000726A02235A43895A02F003F902214843B9
:102B0000716849084018716802F0FBF8019001985B
:102B1000102813D301988021490288420ED20199CE
:102B2000A2480840019949084907490F01436846EE
:102B30004180684640883168C86047E001206946A6
:102B4000087043E02000C0B2002806D0022808D058
:102B5000042811D0082813D013E002F03DFE050030
:102B600013E05D4D11E000BF00800040F369FFCF2E
:102B7000FFCFFFFFFFF4FF1102F0CEFD050004E0E0
:102B800003E03D00012069460870002D1ED028009A
:102B90005249726A02235A43895A02F0B2F87168A4
:102BA00049084018716802F0ACF8019001981028AB
:102BB00009D3019880214902884204D2019880B249
:102BC0003168C86002E001206946087001206A216E
:102BD0007052682170527767B7676846007805B011
:102BE000F0BD00BF003801405410024000440040D6
:102BF00000480040004C004000B52821415C090716
:102C000007D5016849686A4A0A40816B1143026826
:102C100051602821415CC90707D501684968654AA8
:102C20000A40C16A1143026851602821415C89074A
:102C300007D501684968604A0A40016B1143026880
:102C400051602821415C490707D5016849685B4A02
:102C50000A40416B1143026851602821415CC9065A
:102C600007D501688968564A0A40C16B114302685A
:102C700091602821415C890607D501688968514A1D
:102C80000A40016C1143026891602821415C4906A9
:102C900014D5016849684C4A0A40416C11430268E6
:102CA0005160416C80225203914207D1016849680A
:102CB000464A0A40816C1143026851602821415CF8
:102CC000090607D501684968BF4A0A40C16C11432B
:102CD0000268516000BD00000024F400E8C1000853
:102CE0007CB50500002490202C5004F0A7FA0600C3
:102CF0002868006800071ED5B44800903300002201
:102D000080218903280000F063F8002813D0EFF336
:102D10001080012181F3108829680968802291437D
:102D20002A68116080F31088202088216850842050
:102D30002C54032039E02868006840072BD5A348AD
:102D40000090330000228021C903280000F040F8E1
:102D5000002820D0EFF31080012181F3108829682A
:102D600009689B4A0A4029680A6080F31088EFF3DB
:102D70001080012181F3108829688968012291431C
:102D80002A68916080F3108820208C21685084206C
:102D90002C54032009E02020882168508C216850A1
:102DA000EC662C6784202C54002076BDF0FF0000D8
:102DB000FF7FFFFFFFFFFDFFFFFFFEFFFFFFFBFFAA
:102DC000FFEFFFFFFFDFFFFFFFFFEFFFFFFF9FFFB3
:102DD000FEB504000F00089D2068C0693840B84265
:102DE00001D1012000E000206946097988423BD1E9
:102DF0000020C0438542EFD004F020FA0299401A27
:102E0000854201D3002D01D103202EE02068006807
:102E10004007E1D5802FDFD0402FDDD00826206885
:102E2000C069304000280BD020680662200000F006
:102E3000EFF890202650002084216054012014E0F7
:102E4000802000012168C96901400029C4D021689F
:102E50000862200000F0DCF8202090216050002063
:102E600084216054032000E00020FEBD70B5030003
:102E700099655C201A525E201A52002058678024FF
:102E800064019D68A5420AD11D69002D03D1794DC9
:102E900060269D5324E0FF2560269D5320E09D6819
:102EA000002D0AD11D69002D03D1FF2560269D53F9
:102EB00016E07F2560269D5312E09D6880267605EA
:102EC000B5420AD11D69002D03D17F2560269D538F
:102ED00006E03F2560269D5302E0050060269D53D5
:102EE0009025585122208C255851EFF31080012550
:102EF00085F310881D68AD6801262E431D68AE60FD
:102F000080F31088586E8025AD05A84230D110009E
:102F100068255D5B80B2A8422AD39868A04205D19B
:102F20001869002802D16C48586701E06B4858675F
:102F3000186900280DD0EFF31080012484F3108865
:102F40001C68246880256D0025431C68256080F37B
:102F50001088EFF31080012484F310881C68A468A3
:102F600080256D0525431C68A56080F3108829E045
:102F70009868A04205D11869002802D158485867BE
:102F800001E058485867186900280ED0EFF3108008
:102F9000012484F310881C68246890256D00254363
:102FA0001C68256080F310880CE0EFF3108001248A
:102FB00084F310881C682468202525431C6825603C
:102FC00080F31088002070BDFFFFF7FFFFFFFF01B7
:102FD000DFFEFFFFEFF31081012282F31088026809
:102FE0001268C0239A4303681A6081F31088EFF3D4
:102FF0001081012282F31088026892683A4B1340D4
:103000000268936081F310882021882281507047E4
:1030100000B5EFF31081012282F310880268126874
:10302000324B13400268136081F31088EFF3108174
:10303000012282F31088026892682D4B13400268C7
:10304000936081F31088C16E01290CD1EFF31081D8
:10305000012282F310880268126810239A430368E1
:103060001A6081F3108820218C2281500021C166D2
:10307000416700BDFF01000038B50400A56A206863
:10308000006880061DD4002056216852EFF310809E
:10309000012181F3108829688968802291432A6878
:1030A000916080F31088EFF31080012181F3108884
:1030B0002968096840220A4329680A6080F3108859
:1030C00002E0280001F053FF31BD38B50400A56AC5
:1030D000280004F0B9F831BD7935000885330008BF
:1030E000853200088F310008FFFF7FFFDFFEFFFF02
:1030F000FEFFFFEFF8B50400A56A88202F588C204A
:103100002E5828688068000607D5212F05D1002099
:10311000562168522800FFF75DFF28688068400646
:1031200007D5222E05D100205E2168522800FFF726
:103130006FFF90202858102101439020295028002B
:1031400004F01EF8F1BD38B50400A56A00205E2128
:10315000685256216852280004F012F831BD10B5AB
:103160000400EFF31080012181F3108821680968C1
:10317000402291432268116080F31088202088212A
:1031800060500020A067200001F0F1FE10BD70B576
:1031900004006020255A8C20205822286BD12068FA
:1031A000406A0600300029000140A06D0170A06D4A
:1031B000401CA0655E20205A401E5E2160525E20A9
:1031C000205A00285DD1EFF31080012181F310888F
:1031D00021680968694A0A4021680A6080F31088FA
:1031E000EFF31080012181F31088216889680122A2
:1031F00091432268916080F3108820208C216050D8
:1032000000206067206721685D4A914210D02168E4
:10321000496809020CD5EFF31081012282F310886E
:1032200022681268D34B13402268136081F3108820
:10323000E16E01291BD1E066EFF31080012181F3DB
:10324000108821680968102291432268116080F378
:10325000108810202168C9690140002901D0216827
:1032600008625C20215A200003F08BFF09E0200057
:1032700001F087FE05E0206880690821014320688D
:10328000816170BDF8B504006020255A8C2020585B
:1032900022286BD12068406A0600A06D0700280034
:1032A00030403880A06D801CA0655E20205A401EF2
:1032B0005E2160525E20205A00285DD1EFF310801D
:1032C000012181F31088216809682C4A0A4021688D
:1032D0000A6080F31088EFF31080012181F31088D9
:1032E00021688968012291432268916080F31088E7
:1032F00020208C2160500020606720672168204AD0
:10330000914210D02168496809020CD5EFF3108171
:10331000012282F3108822681268964B13402268BB
:10332000136081F31088E16E01291BD1E066EFF391
:103330001080012181F310882168096810229143CF
:103340002268116080F3108810202168C96901404B
:10335000002901D0216808625C20215A200003F076
:1033600010FF09E0200001F00CFE05E020688069F4
:103370000821014320688161F1BD0000DFFEFFFFED
:1033800000800040FEB504006020205A6946C880D5
:103390002068C569206807682068806802908C20D2
:1033A0002058222800D0DEE06820205A6946488054
:1033B00068464088002800D1AAE02026354200D186
:1033C000A6E02068406A6946888068468088694629
:1033D000C9880140A06D0170A06D401CA0655E20F1
:1033E000205A401E5E2160522068C06905006807AF
:1033F000400F002831D02800C00709D5F80507D5AF
:103400000120216808629021615808439021605092
:10341000022005420AD00299C90707D5216808622F
:103420009021615804220A439021625004210D42E8
:1034300009D0029AD20706D52268116290216158FC
:1034400008439021605090202058002805D020008B
:1034500003F096FE0020902160505E20205A002844
:10346000A6D1EFF31080012181F31088216809684B
:10347000BF4A0A4021680A6080F31088EFF3108089
:10348000012181F3108821688968BA4A0A402168BD
:103490008A6080F310888C202650002060672067A7
:1034A0002168B54A914210D02168496809020CD5BB
:1034B000EFF31081012282F31088226812682D4BED
:1034C00013402268136081F31088E16E01291BD13B
:1034D000E066EFF31080012181F31088216809680C
:1034E000102291432268116080F310881020216817
:1034F000C9690140002901D0216808625C20215A75
:10350000200003F03EFE53E7200001F03AFD4FE7B4
:103510005E20205A6946088068460088002828D026
:10352000684600886821615A884222D2EFF31080F1
:10353000012181F3108821688968904A0A40216836
:103540008A6080F310888E486067EFF31080012155
:1035500081F310882168096820220A4321680A60E3
:1035600080F3108805E02068806908210143206805
:103570008161F7BDFFFFFFFBF8B584B00400602058
:10358000205A6946C8802068C56920680768206895
:10359000806802908C202058222800D0E0E068202B
:1035A000205A6946488068464088002800D1ACE02F
:1035B0002026354200D1A8E02068406A694688800C
:1035C000A06D0390684680886946C98801400398C9
:1035D0000180A06D801CA0655E20205A401E5E21E7
:1035E00060522068C06905006807400F002831D08C
:1035F0002800C00709D5F80507D501202168086211
:1036000090216158084390216050022005420AD061
:103610000299C90707D521680862902161580422E0
:103620000A439021625004210D4209D0029AD20728
:1036300006D522681162902161580843902160509C
:1036400090202058002805D0200003F099FD00208C
:10365000902160505E20205A0028A4D1EFF3108002
:10366000012181F3108821680968414A0A402168D4
:103670000A6080F31088EFF31080012181F3108835
:10368000216889683B4A0A4021688A6080F3108873
:103690008C2026500020606720672168364A9142BE
:1036A00010D02168496809020CD5EFF3108101227E
:1036B00082F3108822681268324B1340226813602C
:1036C00081F31088E16E01291BD1E066EFF31080D1
:1036D000012181F310882168096810229143226832
:1036E000116080F3108810202168C9690140002909
:1036F00001D0216808625C20215A200003F041FDBE
:1037000051E7200001F03DFC4DE75E20205A69465C
:10371000088068460088002828D06846008868210C
:10372000615A884222D2EFF31080012181F3108880
:1037300021688968114A0A4021688A6080F31088EC
:1037400011486067EFF31080012181F31088216830
:10375000096820220A4321680A6080F3108805E086
:1037600020688069082101432068816105B0F0BDAF
:10377000FFFEFFFFFEFFFFEF00800040FFFFFFEFB7
:103780008F310008FFFFFFFB8532000870B50D7810
:10379000002D11D00C0004E0491C0E78964207D091
:1037A000401C290000F036F8002805D00100230055
:1037B0005B1C1A78002AEFD170BD0268531C0360AD
:1037C00011707047431C0178401C0942FBD1C01A9C
:1037D00070472E000CB418B583B004000A0006A888
:1037E000029001940020009002AB01A9084878449F
:1037F0001E3003F02FFD0021019A1170002801D422
:103800000198001B04B0019910BC03B0084700BF29
:10381000ABFFFFFFC9B202788A4203D0401C002AE6
:10382000F9D100207047FEE770B4103A03D378C98D
:10383000103A78C0FBD2530701D318C918C001D57C
:1038400008C908C0D20704D30B880380891C801CD8
:10385000002A01D50B78037070BC70478B0701D12B
:103860008307E1D0124205D00B78491C0370401C3D
:10387000521EF9D17047FEE7FEB50026FCF760FC4A
:103880000120BE490871FDF753FEBD4DBDA12800C2
:10389000FFF7A0FFBC4C00222021200000F0CDFF4C
:1038A0002800FFF78FFF80B2FDF752FE07003800B7
:1038B000C0B200280FD16420FDF738F807000122BC
:1038C0002021200000F0B9FF3800C0B2002802D04B
:1038D0003800C0B2A7E1FDF72BFED3492800FFF75F
:1038E00079FF00222021200000F0A7FF2800FFF729
:1038F00069FF80B2FDF72CFE06003000C0B2002840
:103900000FD16420FDF712F80600012220212000CB
:1039100000F093FF3000C0B2002802D03000C0B2E7
:1039200081E1FDF705FEC1492800FFF753FF28009C
:10393000FFF748FF80B2FDF70BFE694608700022D2
:103940002021200000F079FF68460078002809D186
:103950006420FCF7EBFF694608700122202120005B
:1039600000F06BFFFDF7E4FDB1492800FFF732FFDF
:103970002800FFF727FF80B2FDF7EAFD07000022CD
:103980002021200000F059FF3800C0B2002808D1E3
:103990006420FCF7CBFF070001222021200000F06B
:1039A0004CFFFDF7C5FDC4492800FFF713FF2800B1
:1039B000FFF708FF80B2FDF7CBFD060000222021B3
:1039C000200000F03AFF3000C0B2002808D1642087
:1039D000FCF7ACFF060001222021200000F02DFFA3
:1039E000FA20800001F01EFBFDF7A2FDB34928007C
:1039F000FFF7F0FE2800FFF7E5FE80B2FDF7A8FD17
:103A00006946087000222021200000F016FF684659
:103A10000078002809D16420FCF788FF6946087007
:103A200001222021200000F008FFFA20800001F090
:103A3000F9FA1021200000F00DFF0821200000F00D
:103A400009FFFDF775FD2800FFF7BCFE80B2FDF70A
:103A50007FFD07003800C0B2002803D16420FCF7C6
:103A600065FF0700FA20800001F0DCFAFDF760FD39
:103A700093492800FFF7AEFE2800FFF7A3FE80B2AF
:103A8000FDF766FD060000222021200000F0D5FE93
:103A90003000C0B2002808D16420FCF747FF0600C0
:103AA00001222021200000F0C8FE03F0C7FB019096
:103AB000FA20800001F0B6FAFDF73AFD81492800AE
:103AC000FFF788FE2800FFF77DFE80B2FDF740FD7E
:103AD0006946087000222021200000F0AEFE6846F2
:103AE0000078002809D16420FCF720FF694608709F
:103AF00001222021200000F0A0FEFDF719FD7249EF
:103B00002800FFF767FE2800FFF75CFE80B2FDF794
:103B10001FFD070000222021200000F08EFE38004B
:103B2000C0B2002808D16420FCF700FF0700012282
:103B30002021200000F081FEFDF7FAFC63492800F7
:103B4000FFF748FE2800FFF73DFE80B2FDF700FDBD
:103B50006946087000222021200000F06EFE6420DB
:103B6000FCF7E4FE060001222021200000F065FEA3
:103B70003000C0B2372809D100270FE07C67002051
:103B8000183B002041540D000004005003F056FB88
:103B90000199401A4E4988428AD30127FDF7C8FC93
:103BA0004C492800FFF716FE2800FFF70BFE80B2F5
:103BB000FDF7CEFC06003000C0B2002803D164201F
:103BC000FCF7B4FE0600FDF7B3FC43492800FFF7FD
:103BD00001FE2800FFF7F6FD80B2FDF7B9FC0500F5
:103BE00000222021200000F028FE2800C0B200287A
:103BF00008D16420FCF79AFE050001222021200054
:103C000000F01BFE00222021200000F016FE012201
:103C10001021200000F011FE01220821200000F0F8
:103C20000CFE2800C0B2FEBDDCC3000834C300088F
:103C30008CC20008F7B582B01F000024200069463E
:103C400008700194FA20800001F0ECF93B78049AA6
:103C500003990298FDF7E4FB03F0F0FA05001F4E0C
:103C6000307D01280CD01E48807D332808D003F019
:103C7000E5FA401B33498842F1D3012069460870B8
:103C8000307D012803D12000307520000DE014495B
:103C9000887D332802D133208C7500E0012001009B
:103CA000C9B2002901D0C0B203E04849097839708F
:103CB000C0B205B0F0BD000040C300084CC300080E
:103CC00058C3000864C3000870C300087CC3000820
:103CD000E193040088C30008A8BE00087C670020A8
:103CE000B4670020F7B500242700484869460978E2
:103CF000405C00280BD1684680888021C90088423A
:103D000003DA68468088002801D1042018E0029A6E
:103D10006846818868460078FDF760FB03F08EFAFC
:103D200005003B4EF07C012807D003F087FA401BCA
:103D300035498842F5D301200700F4743800C0B239
:103D4000FEBD0000D10700007CB50500002628005C
:103D500080B23049884201DB00201FE0FDF7E8FB1C
:103D60002D4C280080B201901848C07800900123A3
:103D700000222A492000FFF72DFD2000FFF722FD39
:103D800080B2FDF7E5FB0100C9B2002905D0012191
:103D90001F4AD1730F21224A9175C0B276BD00002F
:103DA00070B505000C00002006001D494875174835
:103DB0002900C9B2405C002806D02800C0B2FDF737
:103DC00089FB3000C0B200E0022070BDA462002078
:103DD00010B50024FDF7ACFB12480C494278895C11
:103DE00000290FD00E494978002904D142780E49A4
:103DF0000948FFF7EFFC0848FFF7E4FC80B2FDF745
:103E0000A7FB040010BD00001127000084690020FA
:103E10007C67002001040000183B0020A0C10008BE
:103E2000B4670020A462002014C2000870B5002608
:103E3000E120400200F0D4FFA025ED0580242402FB
:103E400001222100280000F0F8FC0A2001F0EAF825
:103E500000222100280000F0F0FC0A2001F0E2F826
:103E600001222100280000F0E8FC00F0A1FFFCF78F
:103E700025F9F6B2300070BD10B5002004007D4970
:103E80007D4A11607D497E4A116002217D4A117090
:103E90007D4908607D490870FFF7EEFC0100C9B25A
:103EA000002901D0C0B200E0C0B210BDF1B583B0AE
:103EB0000020029003980090754D009872490860A8
:103EC000744C0098210000F01CFF01910098210023
:103ED00000F017FF0400704E01983C2100F00EFF27
:103EE0003160E1273F010198390000F00AFF080026
:103EF0003C2100F003FF70600198390000F0FEFEE5
:103F0000B060201D072100F0F9FEB16103273D429A
:103F10000FD12800642100F0F1FE002906D128000D
:103F2000C821490000F0EAFE002902D1B720400074
:103F300001E0FF206E30844217D32F40002F0FD1B5
:103F40002800642100F0DAFE002906D12800C821EB
:103F5000490000F0D3FE002902D1B720400001E063
:103F6000FF206E30241A6D1CD0E74B4E4B482818AA
:103F70007061F461002030613D420ED1280064215F
:103F800000F0BCFE002906D12800C821490000F03D
:103F9000B5FE002901D1012000E000204049C0B257
:103FA000302250430818316904225143405884425A
:103FB0001FD33D420ED12800642100F09FFE00294E
:103FC00006D12800C821490000F098FE002901D13F
:103FD000012000E000203249C0B2302250430818CE
:103FE0003169042251434058241A3069401C306121
:103FF000C2E7641CF46000203062706929494018EF
:1040000070613069401C3061029804B0F0BDF8B5B1
:1040100006000D0014001F003A0021002800164B76
:104020001B689847F1BD10B50400200014490968C9
:10403000884710BD70B504000D0016001A4821789D
:104040000906627812040A43A17809021143E27852
:104050000A431649511801600068FFF727FF70BD39
:1040600072B60121094A117062B60221054A117027
:10407000704700003540000890690020614000084A
:1040800094690020256A00209C690020246A002091
:10409000B2070000805101000067002094F8FFFF84
:1040A00080BD00086C070000986900208081557C65
:1040B000FEB506000D00140000270020009002ABA2
:1040C000220029003000FFF7B5FDC0B2FEBD38B5B3
:1040D000040000252000C0B2FDF7D8F92800C0B2C6
:1040E00032BD70B505000C0000262A00210089B2FF
:1040F0000020FFF7F7FDC0B270BD10B5040001212C
:104100002000C0B2FFF74CFE10BDFEE7F0B5020084
:1041100052B2002A1CD40322384B040064B2A40813
:1041200004256C431C59FF251600064008277E43D2
:10413000B540AC438D01EDB2024008267243954074
:104140002543020052B29208042462439D5022E0AB
:104150000F242B4B032205006DB22540083DAE080D
:1041600004256E4305006DB22C40083CA4080425CC
:104170006C431F59FF24A4461500054008246543DD
:104180006446AC40A7438C01E4B2024008256A4370
:1041900094403C439C51F0BD80B500210420C043B5
:1041A000FFF7B4FF01BD00B5EFF30580002802D092
:1041B0000520C04309E013480168002903D101210B
:1041C0000160002001E00020C04300BD10B5EFF306
:1041D0000580002802D00520C0430DE0094C20686E
:1041E000012807D1FFF7D8FF0220206004F022F950
:1041F000002001E00020C04310BD000000E400E00A
:104200001CED00E020690020F8B588B006000F0022
:10421000140000250595EFF30580002865D13000D6
:10422000002862D080200690182004900795002076
:10423000C0430390002C35D02068002801D02068AE
:104240000790A069002801D0A06904900498002874
:1042500007D00498392804D2012061680140002960
:1042600001D0002042E06169002902D0616989081B
:104270000691A16800290AD0E1685C2907D3216969
:10428000002904D06169002901D003900BE0A068E7
:10429000002808D1E068002805D12069002802D153
:1042A000039500E00395039801280DD1A0680290C2
:1042B00020690190049800903B00069A079930000D
:1042C00003F088FF059010E0039800280DD105A8A1
:1042D0000190049800903B00069A92B20799300032
:1042E00003F0B0FF012800D00595059809B0F0BD96
:1042F00038B50400EFF30580002802D00525ED4312
:1043000005E00025002C02D0200004F06BF8280006
:1043100032BDF8B584B006000F00140000250295E8
:10432000EFF3058000284BD1002E49D0002F47D055
:104330000020C0430190002C1ED0A06800280DD0A2
:10434000E06850280AD32069002807D0616930004E
:104350007843814202D3012001900EE0A06800283A
:104360000BD1E068002808D12069002805D16069D8
:10437000002802D1019500E001950198012809D19A
:1043800000200090A36822693900300004F0CEFBC1
:10439000029008E00198002805D100223900300081
:1043A00004F006FC02900298002809D0002C02D0EC
:1043B0002068039000E003950399029804F0D5FE6D
:1043C000029805B0F0BDF7B507000C001D0000977E
:1043D00000200600EFF3058100291FD00099002975
:1043E00003D0002C01D0002D03D00320C0430600D1
:1043F0002EE00190002301AA2100009804F0B6FCF1
:10440000012803D00220C043060021E001980028C3
:104410001ED0802040053349086019E0009800282C
:1044200001D0002C03D10320C043060010E000237C
:104430002A002100009804F0F1FB012808D0002D8B
:1044400003D00120C043060002E00220C043060062
:104450003000FEBDFEB506000C00170000960020DF
:104460000500EFF3058100291FD00099002904D031
:10447000002C02D00299002903D00320C04305007C
:104480002DE0019001AA2100009804F065FD0128AB
:1044900003D00220C043050021E0019800281ED06F
:1044A000802040050F49086019E00098002801D0DD
:1044B000002C03D10320C043050010E0029A210024
:1044C000009804F0B1FC012809D00298002803D01C
:1044D0000120C043050002E00220C043050028007F
:1044E000FEBD000004ED00E070B504002600EFF30F
:1044F0000580002802D00525ED4309E0002E02D1F9
:104500000325ED4304E000250021300004F0D2FA39
:10451000280070BDF1B582B000230868D84000289B
:1045200000D1EBE0012508682C009C400440019478
:104530000198002800D1DFE00326486830400128B8
:1045400003D04868304002281ED1029887681C00BA
:10455000022044433000A0408743C86884461C00C2
:10456000022044436046A0403843029CA060029C65
:1045700067682C009C40A7434C6824092C409C4051
:104580003C432200029C626048683040032812D0FD
:104590000298C7681C00022044433000A0408743B3
:1045A000886884461C00022044436046A04038438B
:1045B00002000298C26048683040022821D1029867
:1045C000DC0804277C430019076A072000970F24A2
:1045D000A4461F000740042467436446BC40009F74
:1045E000A743BC460F691C00204004246043874059
:1045F000604607433A000298DC0804277C43001910
:104600000262029807681C00022044433000A04068
:1046100087434868304084461C000220444360467B
:10462000A04038430200029802604868C024A402F7
:104630000440002C60D08E4C980804277843205802
:1046400000900F27BC461F003000384008277843F1
:10465000674687400098B84300900298A027FF055E
:10466000B84201D1002510E00298824A90420CD055
:104670000298814A904201D1022506E002987F4AC1
:10468000904201D1350000E0052500981A0016403F
:1046900008225643B540054398080422504325504C
:1046A000774A1068019CA0434C68E40202D50400DC
:1046B000019820431060734C2268019DAA434D6805
:1046C000AD0202D51000019A024322606E4C2068B0
:1046D000019DA8434D68AD0302D502000198104327
:1046E00020606A4C2268019DAA434D68ED0302D503
:1046F0001000019A024322605B1C0EE7F7BDF2B581
:1047000082B0010000220298D040002800D193E03E
:10471000012302981C009440044000940098002853
:1047200000D187E05248940804256C4300590326C1
:104730000F24150037002F4008256F432500BD408A
:1047400005400195A020C005814201D100250FE060
:104750004848814201D11D000AE04748814201D109
:10476000022505E04548814201D1350000E00525DC
:104770000198844617003000384008277843854068
:104780006046A84228D141480568009FBD430560A6
:104790003D480568009FBD4305603A480568009F95
:1047A000BD43056036480568009FBD4305601000A5
:1047B00035000540082045432000A84001902C48C2
:1047C000950804277D434759019DAF4384469508CA
:1047D00004204543604647510868170002256F438F
:1047E0003500BD4005430D60D008042568430D1811
:1047F000D008042778430818006AA4461400670705
:104800007F0F042467436446BC40A04328628C6841
:104810001500022045433000A84084438C6048685E
:10482000934098434860C8681300022463439E4045
:10483000B043C860521C66E7F7BD00B51300DBB299
:10484000002B03D00B009BB2836102E00B009BB2F4
:10485000836200BD10B442690B009BB213401B047D
:104860000C00A4B294431C43846110BC7047000048
:10487000601802400004005000080050000C005076
:1048800000180240041802408418024080180240B8
:1048900010B50400002C01D1012050E020687849B7
:1048A0004018142100F02DFA8000206402202521F8
:1048B00060542068006897490140206801602068C2
:1048C0000068A1680143E068084321690143606909
:1048D0000843A1690143E0690843216A0143206854
:1048E0000160200000F0C2F9A0688021C90188425F
:1048F00001D10020606020798006800E616C086024
:10490000E06CA16C4860606800280CD060680528E5
:1049100009D2200000F0C2F90020216D0860A06DCE
:10492000616D486003E0002020656065A06500209F
:10493000E06301212522A15424216054002010BDF0
:10494000F7B504001F00002006002421615C012946
:1049500001D102204FE0012529002422A154252164
:10496000615C012940D102212522A154E063206825
:10497000006801218843216808603B00029A019980
:10498000200000F04BF9206B002806D0206800685A
:104990000E210143206801600BE0206800680421BB
:1049A000884321680860206800680A210143206864
:1049B0000160606C0068C00306D5606C00688021EF
:1049C00049000143606C0160206D002806D0206D15
:1049D0000068802149000143206D01602068006863
:1049E00005432068056004E08021E16324216054D0
:1049F0002E003000C0B2FEBD70B50100002901D10B
:104A000001203BE02520085C022806D00420C86372
:104A1000002024228854012030E0086800680E221B
:104A200090430A6810603D484A6C126802404B6C23
:104A30001A600A68126801239A430B681A600122FF
:104A4000354B1C6840254D5D1C262E401500B54099
:104A500025431D60CB6C8C6C63600B6D002B07D005
:104A60000B6D1B6818400B6D1860886D4B6D58609E
:104A700025200A54002024228854002070BD000004
:104A8000F8FFFDBFF8B50400002005002521615C9A
:104A9000022904D00420E0630120050036E02168EB
:104AA00009680E2291432268116021680968012279
:104AB0009143226811601949626C12680A40636C64
:104AC0001A600122144B1E68B4464026A75D1C26BE
:104AD0003E401700B740664637431F60E36CA66C44
:104AE0007360236D002B07D0236D1B681940236D65
:104AF0001960A16D636D59602521625424216054B1
:104B0000A06B002802D02000A16B88472800C0B20B
:104B1000F2BD00000F80FFFF04000240FFFEFFFF18
:104B2000F8B504003C480568206806681C2104208C
:104B3000226C0A40030093402B40002B19D0064200
:104B400017D022681268920605D4226812680423DE
:104B50009A4323681A60444A1368276C3940884096
:104B600018431060206B002854D02000216B884728
:104B700050E00222206C0840130083402B40002BA1
:104B80001FD016421DD020680068800608D4206817
:104B900000680A2398432368186001202523E05405
:104BA00031480368276C39408A401A43026000206C
:104BB00024216054E06A00282CD02000E16A884754
:104BC00028E00820226C0A40030093402B40002B71
:104BD00020D0304000281DD0206800680E2290436D
:104BE000226810600123204A1068276CBC460F0021
:104BF00061460F401900B94001431160E36325206D
:104C00002354002024216054606B002802D020002F
:104C1000616B8847F1BD000000000240F0B5C46C34
:104C2000856C6C60046D002C02D0846D456D6C60E9
:104C30000D4C27680125AC464025455D1C262E40BD
:104C40006546B5403D432560046863608468102C68
:104C500004D10468A2600468E16003E00468A16014
:104C60000468E260F0BD00000400024010B50400DA
:104C7000206C800804214843114940186064207862
:104C8000C0B20838142100F03CF80E49A16401219B
:104C90000200D206D20E9140E16410BD017989066E
:104CA000890E04224A43084BD2180265074A42651E
:104CB00001220B005B1E9B079B0F9A408265704789
:104CC0000008024080080240FC08024040090240FF
:104CD000F446002804D4494200F013F840426047EB
:104CE0004042002905D45FD000F00BF84042494211
:104CF0006047494200F005F84942604703460B43CC
:104D0000E6D40022030A8B420BD203098B4219D24C
:104D100043088B422ED2411A00D20146524110461E
:104D20007047FF2209023FD012068B4205D31212B0
:104D300009028B4201D31212090203098B4219D3D3
:104D400000E0090AC3098B4201D3CB01C01A5241CA
:104D500083098B4201D38B01C01A524143098B4214
:104D600001D34B01C01A524103098B4201D30B01FD
:104D7000C01A5241C3088B4201D3CB00C01A524122
:104D800083088B4201D38B00C01A524143088B42E7
:104D900001D34B00C01A5241884200D3401A5241FD
:104DA000CFD201461046704708B504F01BFA08BD83
:104DB00010B5794800687949FFF7A3FF0400641E25
:104DC0007748784901606321C16044600021016136
:104DD0008160FCF77FFD002801D0FDF78EFA10BD41
:104DE000F8B50700012071490A6802430A600968A2
:104DF0000840009000986E4E6E4830601020B06001
:104E00000024F460802030617461B461F461346224
:104E1000332070603000FFF73BFD674DEE67B562F1
:104E200001220021092004F05AFA092004F061FA55
:104E3000624828606F60AC60EC602C610C20686197
:104E4000AC61EC612C626C62AC622800FDF79AFAEE
:104E5000002801D0FDF751FA2800FDF751FA00288B
:104E600002D0FDF74AFA07E0002201211B2004F0DE
:104E700036FA1B2004F03DFAF1BD80B54E48FDF72F
:104E800049FB01BD80B54648FCF798FD01BD80B5E2
:104E90004548FCF793FD01BD10B50400404884422D
:104EA0000DD147480168491C016046480168002946
:104EB00002D00168491E01602000FBF707FA10BD0F
:104EC00070B58EB00400342100252A0001AE3000F8
:104ED000FCF774FB20683C4988421CD18020800389
:104EE00001900B9501A804F027FA002801D0FDF7E6
:104EF00004FA80210901354802680A43026000680B
:104F0000014000910098002201210D2004F0E7F9F2
:104F10000D2004F0EEF92448844211D18021890249
:104F20002A4802680A430260006801400091009824
:104F300000220321152004F0D2F9152004F0D9F93C
:104F40001748844211D180214902204802680A434F
:104F500002600068014000910098002203211420A3
:104F600004F0BDF9142004F0C4F90EB070BD10B502
:104F7000040020681149884202D12000FBF792FC0E
:104F800010BD10B5040020680C49884202D12000F1
:104F9000FBF798FC10BD000038000020102700002F
:104FA00020650020004001406C6500203810024060
:104FB000D463002008000240106200200038014045
:104FC000886900208C690020002C014040100240BC
:104FD0007047704770477047704770477047FEE7EB
:104FE00010B500240C480168802252000A43026078
:104FF000032004F0DBFA002802D00120040001E0C5
:1050000001F0C2FF2000C0B210BD04490A68044B81
:10501000134003430B607047002002400000014032
:10502000FFF9FFFF70B5040002F008F90500260043
:105030000020C043864202D004480078361802F0AF
:10504000FDF8401BB042FAD370BD00BF7E000020C7
:1050500030B504000F4801680F4A0A40224302603D
:1050600080208000844212D10C4800680621484309
:105070000B49FFF746FE401C05000A480068400542
:1050800005D5002D01D06D1EF7E7032000E00020BC
:1050900030BD000000700040FFF9FFFF3800002025
:1050A00040420F001470004002480168E020C00137
:1050B0000840704708100240F8B584B00400002C86
:1050C00001D101204FE201262068304000285CD049
:1050D000B3480068382101400291B2480068800757
:1050E000800F01900298102802D10198032802D065
:1050F0000298082808D1AC480068800345D560684C
:10510000002842D101202EE28020400261688142C5
:1051100004D1A5490A681043086017E06168A0221D
:10512000D202914209D1A0490A688023DB021343CD
:105130000B600A681043086008E09B480168B04AA9
:105140000A4002600168AF4A0A40026060680028B5
:105150000DD002F073F8050093480068800314D462
:1051600002F06CF8401B6528F6D30320FBE102F047
:1051700065F805008C480068800306D502F05EF8EB
:10518000401B6528F6D30320EDE12078800776D513
:1051900083480068382101400291824800688007F6
:1051A000800F01900298102802D10198022802D0A5
:1051B000029800282CD17C490868400504D5E06895
:1051C000002801D10120CEE1BA480268BA4B134051
:1051D000626912021A4302600298002810D108681E
:1051E000B64A0240206910430860B5480968C90AF8
:1051F0004A07520F31009140FFF783FDBD49086017
:10520000BD48006804F0D2F9002838D00120AAE196
:10521000E068002821D0644F3868A849014020691F
:10522000084338603868802149000143396002F042
:1052300005F805003868400506D401F0FFFF401B63
:105240000328F7D303208EE19A4801689A4A0A405E
:10525000616909021143016011E0534F3868A749A1
:105260000140396001F0EAFF05003868400506D5C5
:1052700001F0E4FF401B0328F7D3032073E12078FB
:10528000000734D54648006838210140182908D164
:10529000B648006880072AD5A069002827D10120D8
:1052A00061E1A069002810D0B04F38683043386001
:1052B00001F0C4FF05003868800718D401F0BEFF74
:1052C000401B0328F7D303204DE1A84F3868012184
:1052D0008843386001F0B2FF05003868800706D5C2
:1052E00001F0ACFF401B0328F7D303203BE1042768
:1052F00020683840002800D18FE0002069460870FF
:10530000274800683821014020290AD198480068C0
:10531000800700D481E0A068002800D07DE0012053
:1053200021E18020400593490968014000290AD104
:1053300090490A6802430A6009680840039003988C
:105340003000694608708C480068C00514D48A484B
:1053500000688021490001438748016001F06EFF29
:10536000050085480068C00506D401F067FF401BB2
:105370000328F6D30320F6E0A068012804D17C4876
:1053800001680E4306601AE0A06805280ED178482F
:1053900001680F43076001680E4306600FE000BF1D
:1053A000081002400C1002400010024070480168D2
:1053B0000122914301600168042291430160A068C9
:1053C00000280ED001F03AFF050069480068800708
:1053D0001AD401F033FF401B68498842F5D30320FB
:1053E000C1E001F02BFF05006148006880070BD584
:1053F00001F024FF401B61498842F5D30320B2E04D
:10540000FFFFFEFFFFFFFBFF68460078012804D185
:10541000584801685A4A0A400260E069002800D1F1
:10542000A0E05848006838210140102968D0E069A0
:10543000022847D1544F3868B3490140396001F020
:10544000FDFE00908026B60438683040002807D062
:1054500001F0F4FE0099401A0328F3D3032082E000
:10546000AB480168A94A0A40216A1143626A0A43AB
:10547000A16A09021143E26A0A43216B1143626B7C
:105480000A4302603968802252040A433A60016884
:10549000802252050A43026001F0D0FE0500386800
:1054A000304000285ED101F0C9FE401B0328F6D32E
:1054B000032058E004100240FF80FFFFFFC7FFFFFA
:1054C0000024F400304E30688F490140316001F013
:1054D000B5FE05003068800106D501F0AFFE401B27
:1054E0000328F7D303203EE089480168894A0A402F
:1054F000026037E03800002034000020FFFEFFFF8C
:10550000E069012801D101202DE081480068019067
:1055100001988007800F216A884221D1019870216B
:105520000140606A81421BD10198FE21C9010140FE
:10553000A06A0002814213D10198F8218903014039
:10554000E06A81420CD10198E02109050140206BFD
:10555000814205D10198400F4007616B884201D01C
:10556000012000E0002005B0F0BD00006010024006
:105570005C1002403C1002400070004089130000A3
:10558000FFFFFFEF0810024000100240F3B581B0AA
:105590000400002C01D10120B5E007258D4E3068B4
:1055A00028400299884216D2306807218843029920
:1055B0000143316001F042FE0090306828400299BA
:1055C000884208D001F03AFE0099401A8A49884280
:1055D000F3D3032097E002202168014000290FD077
:1055E0002178490705D585490A68E023DB01134383
:1055F0000B6082490A68824B1340A2681A430A6012
:105600002178C90745D56168012905D17D48006821
:10561000800324D4012076E06168022905D179480D
:10562000006880011BD401206DE06168002905D16C
:1056300074480068400512D4012064E061680329C1
:1056400006D1714909680840002808D101205AE0B4
:105650006E4909680840002801D1012053E0674FD6
:1056600038680721884361680143396001F0E6FD2D
:1056700000903868382101406068C000814208D03D
:1056800001F0DCFD0099401A5B498842F1D3032008
:1056900039E0029831682940884216D230680721E3
:1056A000884302990143316001F0C8FD00903068E1
:1056B00028400299884208D001F0C0FD0099401AA4
:1056C0004D498842F3D303201DE02078400706D5DA
:1056D0004A4801684E4A0A40E1681143016000F0FF
:1056E0001BF84C49454A1268120A1207120F04238C
:1056F0005A43895CC906C90EC840474908604748F3
:10570000006803F053FFFEBDFFFFFFFE8C80C11158
:105710000C100240FCFFFEEEFCB5382037490A6849
:105720000240002A0CD1012036490968C90A4907FC
:10573000490F884006003A483100FFF7E2FA44E09A
:105740000A680240082A01D136483EE00A68024051
:10575000102A2BD1344F38688007800F01903868A9
:1057600000094007400F401C0500019803280AD19A
:105770002C482900FFF7C5FA3968090A4906490E7D
:105780004843040009E026482900FFF7BAFA3968BF
:10579000090A4906490E484304003868400F401C76
:1057A000009020000099FFF7ACFA0EE00A68024072
:1057B000202A02D18020000207E00968084018284A
:1057C00002D1FA20C00100E00020F6BD12480068B6
:1057D000704700000020024010B5FFF7F7FF0400FB
:1057E000FFF762FC1149000B04225043085CC0061D
:1057F000C00EC440200010BD8913000008100240F4
:10580000FFF0FFFF00100240601002405C100240F9
:10581000FF8FFFFF68BE0008380000203400002022
:105820000024F40000127A000C100240B4C00008FA
:1058300010B50400002C01D1012065E04120205C5E
:10584000002805D1002040216054200001F0BBFB5E
:105850002420412160542068006801218843216888
:105860000860606829490140206801612848216872
:105870008968014022689160E168012906D1A16828
:10588000802212020A4321688A6005E0A16884220E
:1058900012020A4321688A60E168022907D121685F
:1058A0004968802212010A4321684A6005E02168A4
:1058B0004968184A0A4021684A6021684968164ABE
:1058C0000A4321684A602168C96808402168C860A5
:1058D000206961690143A069000208432168C8602A
:1058E000E069216A014320680160206800680121A5
:1058F0000143206801600020606420214122A154FE
:10590000206342216054002010BD0000FFFFFFF023
:10591000FF7FFFFFFFF7FFFF00800002FEB582B0B0
:1059200004000F004120205C202800D0C5E00A9828
:10593000002803D06846808D002804D18020800094
:1059400060640120BAE04020205C012801D10220DF
:10595000B4E001204021605401F070FC0600009684
:105960001923012280210902200000F01FFA0028DB
:1059700001D00120A2E02120412160544020422199
:105980006054002565640A9860626846808D608571
:10599000656301960C9800906846038A6846828980
:1059A000390089B2200000F065F9002803D04020BA
:1059B0002554012082E0608DFF280DD9FF2020852D
:1059C0000020009080235B04228DD2B2390089B27E
:1059D000200000F02EFB0CE0608D20850020009060
:1059E00080239B04228DD2B2390089B2200000F0BE
:1059F00020FB32000C99200000F019FA002801D099
:105A000001205BE0606A007821688862606A401C5F
:105A100060629548618D09186185218D081820857F
:105A2000608D00282BD0208D002828D100960C9B5B
:105A300000228021200000F0B9F9002801D00120C7
:105A40003CE0608DFF280DD9FF20208500200090CC
:105A500080235B04228DD2B2390089B2200000F08D
:105A6000E8FA0CE0608D20850020009080239B04E4
:105A7000228DD2B2390089B2200000F0DAFA608DAE
:105A80000028B6D132000C99200000F003FA00285B
:105A900001D0012012E020202168C86121684968F6
:105AA000724A0A4021684A6041216054280042211C
:105AB000605440202554002000E0022005B0F0BDD5
:105AC000FEB582B004000F004120205C202800D0E9
:105AD000C7E00A98002803D06846808D002804D1CA
